:020000040800F2
:1000000000040020450100083D030008B10200087B
:10001000390300088D010008B10400080000000049
:100020000000000000000000000000006103000864
:1000300091010008000000003F0300084D04000883
:100040005F0100085F0100085F0100085F01000810
:100050005F0100085F0100085F0100085F01000800
:100060005F0100085F0100085F0100085F010008F0
:100070005F0100085F0100085F0100085F010008E0
:100080005F0100085F0100085F0100085F010008D0
:100090005F0100085F0100085F0100085F010008C0
:1000A0005F0100085F0100085F0100085F010008B0
:1000B0005F0100085F0100085F0100085F010008A0
:1000C0005F0100085F0100085F0100085F01000890
:1000D0005F0100085F0100085F0100085F01000880
:1000E0005F0100085F0100085F0100085F01000870
:1000F0005F0100085F0100085F0100085F01000860
:100100005F0100085F0100085F0100085F0100084F
:100110005F0100085F0100085F0100085F0100083F
:100120005F0100085F0100085F0100085F0100082F
:10013000DFF80CD000F018F800480047D50400089C
:10014000000400200648804706480047FEE7FEE717
:10015000FEE7FEE7FEE7FEE7FEE7FEE7FEE7FEE777
:100160005104000831010008064C074D06E0E06824
:1001700040F0010394E8070098471034AC42F6D3EE
:10018000FFF7DAFF580600086806000800BFFEE720
:1001900070472DE9F041024600250026002000238B
:1001A0000024002791F803C00CF00F0591F803C05C
:1001B0000CF0100CBCF1000F03D091F802C04CEA17
:1001C000050591F800C0BCF1000F31D01468002083
:1001D0002BE04FF0010C0CFA00F3B1F800C00CEA70
:1001E00003069E4220D183004FF00F0C0CFA03F758
:1001F000BC4305FA03FC4CEA040491F803C0BCF1CB
:10020000280F06D14FF0010C0CFA00FCC2F814C004
:100210000AE091F803C0BCF1480F05D14FF0010C82
:100220000CFA00FCC2F810C0401C0828D1D314609E
:10023000B1F800C0BCF1FF0F34DD546800202EE09F
:1002400000F1080C4FF0010808FA0CF3B1F800C0F7
:100250000CEA03069E4221D183004FF00F0C0CFAEA
:1002600003F7BC4305FA03FC4CEA040491F803C00D
:10027000BCF1280F05D100F1080C08FA0CF8C2F8FF
:10028000148091F803C0BCF1480F07D100F1080CAD
:100290004FF0010808FA0CF8C2F81080401C08283A
:1002A000CED35460BDE8F081416170470161704771
:1002B00000BFFEE708B50121082000F041F8022048
:1002C000ADF8000010208DF8030002208DF8020028
:1002D00069460248FFF75DFF08BD0000000C0140C1
:1002E00008B50121082000F02BF80120ADF800002E
:1002F00010208DF8030002208DF8020069460248A4
:10030000FFF747FF08BD0000000C014008B50121C0
:10031000082000F015F82020ADF8000010208DF81E
:10032000030002208DF8020069460248FFF731FF02
:1003300008BD0000000C014000BFFEE77047704799
:1003400029B1064A92690243044B9A6104E0034AC8
:1003500092698243014B9A6170470000001002408D
:10036000704710B500F002F810BD00000CB5002079
:10037000019000903348006840F4803031490860B3
:1003800000BF3048006800F4003000900198401C25
:100390000190009818B90198B0F5A06FF1D12948E3
:1003A000006800F4003010B10120009001E000204E
:1003B00000900098012843D12348006840F01000C5
:1003C000214908600846006820F0030008600846DC
:1003D000006840F0020008601A4840681949486007
:1003E0000846406848600846406840F480604860BD
:1003F0000846406820F47C1048600846406840F495
:10040000E81048600846006840F08070086000BF4F
:100410000C48006800F000700028F9D009484068D6
:1004200020F00300074948600846406840F0020099
:10043000486000BF0348406800F00C000828F9D16C
:100440000CBD000000100240002002407047000078
:1004500010B51348006840F00100114908600846D3
:100460004068104908400E494860084600680E4937
:1004700008400B4908600846006820F480200860A6
:100480000846406820F4FE0048604FF41F00886072
:10049000FFF767FF4FF000600449086010BD0000DF
:1004A000001002400000FFF8FFFFF6FE08ED00E03C
:1004B00000BFFEE702E008C8121F08C1002AFAD1F7
:1004C00070477047002001E001C1121F002AFBD1D4
:1004D000704700000024FFF703FFFFF717FFFFF747
:1004E000E9FEB3E0002400E0641C59488442FBDBD1
:1004F00001215848FFF7DAFE20215648FFF7D6FEC3
:1005000002215448FFF7D2FE002400E0641C50484A
:100510008442FBDB01214F48FFF7C6FE002400E0C8
:10052000641C4B488442FBDB01214A48FFF7BEFEB6
:10053000002400E0641C46488442FBDB202145483F
:10054000FFF7B2FE002400E0641C41488442FBDB5C
:1005500020214048FFF7AAFE002400E0641C3C482C
:100560008442FBDB02213B48FFF79EFE002400E0B3
:10057000641C37488442FBDB02213648FFF796FEB5
:10058000002400E0641C32488442FBDB0121314836
:10059000FFF78AFE20212F48FFF786FE002400E0A7
:1005A000641C2B488442FBDB01212A48FFF77EFEB6
:1005B00020212848FFF77AFE002400E0641C24482C
:1005C0008442FBDB01212348FFF76EFE0221214814
:1005D000FFF76AFE002400E0641C1D488442FBDB38
:1005E00001211C48FFF762FE02211A48FFF75EFE58
:1005F000002400E0641C16488442FBDB20211548DF
:10060000FFF752FE02211348FFF74EFE002400E0E0
:10061000641C0F488442FBDB20210E48FFF746FE96
:1006200002210C48FFF742FE002400E0641C084849
:100630008442FBDB01210748FFF736FE20210548F5
:10064000FFF732FE02210348FFF72EFE4AE70000C3
:1006500080841E00000C0140680600080000002095
:0806600000040000C4040008BE
:0400000508000131BD
:00000001FF
