:020000040800F2
:100000008004002045010008910400089F030008B7
:1000100029040008B1010008B5060008000000002E
:10002000000000000000000000000000D5040008EF
:100030002502000800000000930400085106000893
:100040005F0100085F0100085F0100085F01000810
:100050005F0100085F010008290200085F01000835
:100060005F0100085F0100085F0100085F010008F0
:100070005F0100085F0100085F0100085F010008E0
:100080005F0100085F0100085F0100085F010008D0
:100090005F0100085F0100085F0100085F010008C0
:1000A0005F0100085F0100085F0100085F010008B0
:1000B0005F0100085F0100085F0100085F010008A0
:1000C0005F0100085F0100085F0100085F01000890
:1000D0005F0100085F0100085F0100085F01000880
:1000E0005F0100085F0100085F0100085F01000870
:1000F0005F0100085F0100085F0100085F01000860
:100100005F0100085F0100085F0100085F0100084F
:100110005F0100085F0100085F0100085F0100083F
:100120005F0100085F0100085F0100085F0100082F
:10013000DFF80CD000F018F800480047D906000896
:10014000800400200648804706480047FEE7FEE797
:10015000FEE7FEE7FEE7FEE7FEE7FEE7FEE7FEE777
:100160005506000831010008064C074D06E0E0681E
:1001700040F0010394E8070098471034AC42F6D3EE
:10018000FFF7DAFFCC070008DC07000810B50346CC
:1001900007E018680C68A04201D0002010BD1B1DAC
:1001A000091D1000A2F10104A2B2F2D10120F5E76D
:1001B00000BFFEE700F0805111B10349086001E083
:1001C00002494860704700000404024000000240F9
:1001D00021B1026842F00102026004E002684FF6B9
:1001E000FE731A400260704710B50022026847F69D
:1001F000F0739A430C6A8B6823430C6923434C6960
:1002000023438C692343CC6923434C6A23438C6A80
:1002100023431A430260CB6843600B6883604B68DA
:10022000C36010BD7047000010B5012000F014F845
:1002300028B10548006880F00100034908600120EA
:1002400000F004F810BD00000C0C014001490860EA
:100250007047000014040140014600200022074BB3
:100260001B6803EA0102054B14331B680B4013B1F2
:100270000AB1012000E000207047000000040140A6
:100280002DE9F0410246002500260020002300242D
:10029000002791F803C00CF00F0591F803C00CF093
:1002A000100CBCF1000F03D091F802C04CEA050518
:1002B00091F800C0BCF1000F31D0146800202BE091
:1002C0004FF0010C0CFA00F3B1F800C00CEA030681
:1002D0009E4220D183004FF00F0C0CFA03F7BC4371
:1002E00005FA03FC4CEA040491F803C0BCF1280FA2
:1002F00006D14FF0010C0CFA00FCC2F814C00AE061
:1003000091F803C0BCF1480F05D14FF0010C0CFA75
:1003100000FCC2F810C0401C0828D1D31460B1F80A
:1003200000C0BCF1FF0F34DD546800202EE000F166
:10033000080C4FF0010808FA0CF3B1F800C00CEA01
:1003400003069E4221D183004FF00F0C0CFA03F7F5
:10035000BC4305FA03FC4CEA040491F803C0BCF169
:10036000280F05D100F1080C08FA0CF8C2F8148027
:1003700091F803C0BCF1480F07D100F1080C4FF011
:10038000010808FA0CF8C2F81080401C0828CED3E7
:100390005460BDE8F081416170470161704700BF62
:1003A000FEE7000008B50121082000F083F80220D4
:1003B000ADF8000010208DF8030002208DF8020037
:1003C00069460248FFF75CFF08BD0000000C0140D1
:1003D00008B50121082000F06DF80120ADF80000FB
:1003E00010208DF8030002208DF8020069460248B3
:1003F000FFF746FF08BD0000000C014008B50121D1
:10040000082000F057F82020ADF8000010208DF8EB
:10041000030002208DF8020069460248FFF730FF12
:1004200008BD0000000C014000BFFEE700B58BB026
:100430000121084600F02EF8124800901248019061
:10044000002002902020039040200490C0000690DD
:100450008020059000010790002008904FF4005084
:10046000099040000A9069460848FFF7BDFE4FF426
:100470000010FFF79FFE01210448FFF7A9FE0BB013
:1004800000BD00004C070008000000206C00024086
:100490007047704729B1064A52690243044B5A61BA
:1004A00004E0034A52698243014B5A6170470000DD
:1004B0000010024029B1064A92690243044B9A6136
:1004C00004E0034A92698243014B9A61704700003D
:1004D00000100240704710B500F002F810BD000097
:1004E0000CB50020019000903348006840F4803043
:1004F0003149086000BF3048006800F400300090C7
:100500000198401C0190009818B90198B0F5A06FAF
:10051000F1D12948006800F4003010B101200090AA
:1005200001E0002000900098012843D12348006892
:1005300040F01000214908600846006820F00300E0
:1005400008600846006840F0020008601A484068E9
:10055000194948600846406848600846406840F4C9
:10056000806048600846406820F47C104860084677
:10057000406840F4E81048600846006840F0807029
:10058000086000BF0C48006800F000700028F9D037
:100590000948406820F00300074948600846406861
:1005A00040F00200486000BF0348406800F00C00C3
:1005B0000828F9D10CBD00000010024000200240C4
:1005C00030B50146B1F1807F01D3012030BD21F06B
:1005D0007F40401E4FF0E022506150170F2200284C
:1005E00007DA13071D0E094B00F00F04241F1D55D9
:1005F00003E013071C0E064B1C5400BF00204FF0F5
:10060000E0229061072010610020DFE718ED00E094
:1006100000E400E070B504460C48FFF7D1FF002568
:1006200008E000BF4FF0E020006900F480300028AF
:10063000F8D06D1CA542F4D34FF0E020006920F003
:1006400001004FF0E021086170BD00004019010079
:100650007047000010B51348006840F001001149D0
:10066000086008464068104908400E49486008463E
:1006700000680E4908400B4908600846006820F4ED
:10068000802008600846406820F4FE0048604FF46F
:100690001F008860FFF71FFF4FF0006004490860EB
:1006A00010BD0000001002400000FFF8FFFFF6FE42
:1006B00008ED00E000BFFEE702E008C8121F08C115
:1006C000002AFAD170477047002001E001C1121FD3
:1006D000002AFBD17047000010B50024FFF778FE18
:1006E0004FF49670FFF796FF01211548FFF755FE6E
:1006F000FFF784FE4FF49670FFF78CFF202110481F
:10070000FFF74BFEFFF74EFE4FF49670FFF782FFA8
:1007100002210B48FFF741FEFFF788FE202209491E
:100720000948FFF733FD044624B920210448FFF7A8
:1007300032FE03E001210248FFF72DFE002010BD2C
:10074000000C0140000000204C07000804030201D7
:10075000080706050C0B0A09100F0E0D14131211D1
:10076000181716151C1B1A19201F1E1D24232221C1
:10077000282726252C2B2A29302F2E2D34333231B1
:10078000383736353C3B3A39403F3E3D44434241A1
:10079000484746454C4B4A49504F4E4D5453525191
:1007A000585756555C5B5A59605F5E5D6463626181
:1007B000686766656C6B6A69706F6E6D7473727171
:1007C000787776757C7B7A79807F7E7DDC07000880
:0C07D0000000002080040000C8060008A3
:0400000508000131BD
:00000001FF
